:020000040800F2
:10000000A0090020D50200081D510008294B000856
:1000100019510008CD170008795C000800000000A5
:10002000000000000000000000000000CD540008A7
:1000300069190008000000008D51000825550008CE
:10004000EF020008EF020008EF020008EF020008CC
:10005000EF020008EF020008EF020008EF020008BC
:10006000EF020008EF020008EF020008EF020008AC
:10007000EF020008EF020008EF020008EF0200089C
:10008000EF020008EF020008EF020008EF0200088C
:10009000EF020008EF020008EF020008EF0200087C
:1000A000EF020008EF020008EF020008EF0200086C
:1000B000EF020008EF020008EF020008EF0200085C
:1000C000EF020008EF020008EF020008EF0200084C
:1000D000EF020008EF020008EF020008EF0200083C
:1000E000291B0008EF020008EF020008EF020008D9
:1000F000EF020008EF020008EF020008EF0200081C
:10010000EF020008EF020008EF020008EF0200080B
:10011000EF020008EF020008EF020008EF020008FB
:10012000EF020008EF020008EF020008EF020008EB
:10013000EF0200080000000000000000EF020008CD
:10014000EF020008EF020008EF020008EF020008CB
:10015000EF020008EF020008EF020008EF020008BB
:10016000EF020008EF020008EF020008EF020008AB
:10017000EF020008EF02000800000000000000008D
:10018000EF020008EF02000800F002F800F092F819
:100190000AA090E8000C82448344AAF10107DA45E2
:1001A00001D100F087F8AFF2090EBAE80F0013F0A2
:1001B000010F18BFFB1A43F001031847C88E000057
:1001C000E88E0000103A24BF78C878C1FAD85207E8
:1001D00024BF30C830C144BF04680C6070470000C1
:1001E0000023002400250026103A28BF78C1FBD840
:1001F000520728BF30C148BF0B6070476E2900F01E
:10020000DF81702900F02183662908F04486652982
:1002100008F04186672908F03E86612908F03D868E
:1002200003681B0A28BF41F08001692900F08C8116
:10023000642900F08981752900F086816F2900F01A
:10024000AF82782900F0ED82E92900F04982E429A3
:1002500000F04682F52900F04382EF2900F0AC82DD
:10026000F82900F0EC820368DB0928BF41F0800127
:10027000632900F0ED87732900F0F287E32900F08D
:10028000FD87F32901F00280002070471FB508F0B8
:10029000F0FD01F051F804000020002108F018F9E9
:1002A000401C60600020002108F0FCF8E0601FBDE9
:1002B00010B510BD01F012F81146FFF7E7FF07F087
:1002C00085FB01F0EFF803B4FFF7F2FF03BC01F088
:1002D00035F900000948804709480047FEE7FEE776
:1002E000FEE7FEE7FEE7FEE7FEE7FEE7FEE7FEE7E6
:1002F00004480549054A064B70470000F1550008BF
:1003000089010008A0030020A0090020A00500200A
:10031000A005002053EA020C00F069802DE9F04BA3
:100320004FF00006002B1FBFB3FA83F503FA05F464
:1003300024FA05F65E4012BF1643B2FA82F502FABD
:1003400005F4C5F120051EBF22FA05FC44EA0C04A1
:10035000203556EA044C4FEA144418BF641C4FF091
:1003600000084FF00009904271EB030C39D30029CB
:1003700019BFB1FA81F701FA07F6B0FA80F700FA6F
:1003800007F6C7F120071EBF20FA07FC46EA0C0655
:100390002037B6FBF4FCA7EB0507103F07F01F0B57
:1003A000CBF120062CFA06F60CFA0BFB44BFB34641
:1003B0000026202FA4BF5E464FF0000B5BEA060C20
:1003C00008BF4FF0010B19EB0B0948EB0608ABFB1C
:1003D000027C06FB02CC0BFB03CCC01B71EB0C01B7
:1003E000C1E70B46024641464846BDE8F08B13B5CF
:1003F000084318BF4FF0FF300146AFF30080BDE85F
:100400001C4070470FB41CB5084B06AA7B446946D4
:100410000090059800F0EDF804460020694600F0D1
:10042000FBF820461CBC5DF814FB0000090200002C
:100430004FF0000200B5134694469646203922BF7D
:10044000A0E80C50A0E80C50B1F12001BFF4F7AFC8
:10045000090728BFA0E80C5048BF0CC05DF804EBAA
:10046000890028BF40F8042B08BF704748BF20F818
:10047000022B11F0804F18BF00F8012B7047704716
:100480007047704770B5044685690068C10601D59C
:10049000302600E02026C00707D070BDD4E9012136
:1004A00030469047206A401C20626D1EF6D570BD14
:1004B00070B5044685690078C00707D170BDD4E9DE
:1004C000012120209047206A401C20626D1EF6D535
:1004D00070BD09684A0501D540B27047C905FCD511
:1004E00000B2704709684A0501D5C0B27047C90516
:1004F000FCD580B2704770B50C460546012A05D080
:100500002878800600D5EA69002302E0012305E08F
:100510005B1C934202D2E05C0028F9D1A869E6187E
:10052000C01AA861286A184428622846FFF7AAFF63
:1005300004E0D5E9012114F8010B9047B442F8D347
:100540002846FFF7B5FF70BD2DE9F04106460024AF
:1005500010687529314616A510D0FFF7BAFF00289C
:1005600002DA404213A507E031688A0701D512A5D7
:1005700002E0490704D511A5012401E0FFF7B2FF0D
:1005800000210A2206F1240709E0B0FBF2FCB0FBCF
:10059000F2F302FB1C00303078541846491C002846
:1005A000F3D123462A463046BDE8F04100F061BA57
:1005B000000000002D0000002B00000020000000C3
:1005C00011680268006A530501D508700AE0D30576
:1005D00001D5088006E0130603D5C217C1E9000261
:1005E00000E008600120704701694A1C0261087838
:1005F000704700B58FB0CDE9013100210591054963
:100600007944CDE903101146684600F029F90FB08E
:1006100000BD0000E5FFFFFF0A6802F8010B0A6059
:10062000704700002DE9FF5F15468A460446DFF853
:10063000AC80F8440027D8E900103E46CDE9001010
:1006400010E03AF816106A4602A800F023FE411C9A
:1006500007D02178890603D5E269391891420DD86F
:100660000744761C2078800602D5E069B84205DD93
:10067000AE42E6DB3AF816000028E2D1A069C01BC2
:10068000A0612046FFF7FEFED8E90010CDE900107A
:10069000002017E03AF818106A4602A800F0FAFDA8
:1006A000B0F1FF3F81460BD000250DF1080B05E0AE
:1006B000D4E901211BF8050090476D1C4D45F7D387
:1006C00008F10100B0428046E4DB206A3844206231
:1006D0002046FFF7EDFEBDE8FF9F00006A8800009E
:1006E0002DE9F0418046D21D22F007020025D2E913
:1006F0000002F52915A614D0011E72F1000106DAD8
:100700000023D0EB030063EB020211A608E0D8F847
:1007100000108B0701D50FA602E0490701D50EA6F0
:1007200001251146002408F1240704E000F05CF9DB
:1007300030323A55641C50EA0102F7D12B4632465A
:1007400021464046BDE8F04100F093B900000000AA
:100750002D0000002B0000002000000030B400211C
:1007600000F1240408E002F00705D208303542EA1F
:100770004372DB086554491C52EA0305F3D104684F
:10078000002310A2250708D504F020040C4304D050
:10079000C46901230CA2641EC46130BC00F069B9B5
:1007A00010B5044621461068FFF79CFE024620461D
:1007B000BDE810400023D1E7D21D22F00701D1E9A6
:1007C0000023CBE70000000030000000F0B40D462D
:1007D0000188090502D5214C7C4402E01F4C7C4471
:1007E0000E34002100F1240608E002F00F07120980
:1007F000E75D42EA03721B097754491C52EA03077A
:10080000F3D102780023120704D5702D06D009B168
:10081000022311342246F0BC00F02BB9012310341E
:10082000F8E770B504460D4621461068FFF75AFEFA
:10083000024629462046BDE870400023C6E7D21D87
:1008400022F00703D3E90023C0E70368126843F0EE
:10085000200303600823C3610023B7E7CC860000B0
:100860002DE9F05F894604464FF0000ADFF874B1C5
:10087000FB44C0F820A02046E1688847002874D0D7
:10088000252806D0D4E901219047206A401C206227
:10089000F1E700265F462046E168884720280546A4
:1008A00007DB312D05D2781910F8200C08B106436A
:1008B000F1E7B00701D526F00406C4F81CA0002714
:1008C000C4F818A02A2D09D0284607F0E3FD38B354
:1008D00004EB8708303DC8F8185019E059F8041B9C
:1008E000204604EB87029161E1688847012F0546A5
:1008F00018D1E069002820DA26F020061DE0D8F89B
:10090000180000EB800005EB40003038C8F81800F4
:100910002046E1688847054607F0BCFD0028EED177
:10092000012F0AD02E2D08D12046E16888477F1C70
:100930000546022F46F02006C4DBA069002803DA32
:10094000404246F00106A061F00701D026F01006F3
:100950006C2D0BD0682D09D04C2D39D06A2D35D097
:10096000742D35D07A2D33D016E038E0E1682F466B
:1009700020468847B842054609D16C2F26D04FF44F
:100980008060E168064320468847054604E06C2FF6
:100990001AD04FF4807006430DB3A5F14100192819
:1009A00002D8203546F400664A462946204626608D
:1009B0004E46FFF723FC80B101280BD0F61D26F030
:1009C000070000F1080956E74020E4E78020D8E757
:1009D0000020D6E706F104094DE7284652E7206AD1
:1009E000BDE8F09F5C86000030B5B0F10A0271F1FD
:1009F00000034FEA900E4EEA817EB0EB0E0061EBF1
:100A000091014FEA101E4EEA017E10EB0E0041EB01
:100A100011114FEA102E4EEA016E10EB0E0041EB61
:100A200011214FEA104E4EEA014E10EB0E0041EB41
:100A30001141401841F100014FEAD00040EA4170F5
:100A40004FEAD1014FEA810444EA907410EB80052B
:100A500044EB01046D1944EB0404521BA3414FF015
:100A6000000348BF0A3200D530BD401C41F10001EF
:100A700030BD2DE9F0470D4699469246044600F1F7
:100A800024080168880604D5E06921F0100121607E
:100A900000E00120A84201DD471B00E00027A1691A
:100AA0007A1902EB0900081AA0612078C00602D466
:100AB0002046FFF7E7FC002608E0D4E901211AF8F8
:100AC00006009047206A401C761C20624E45F4DBED
:100AD0002078C0060AD52046FFF7D4FC06E0D4E90A
:100AE000012130209047206A401C2062381EA7F167
:100AF0000107F4DC07E0D4E9012118F8050090476C
:100B0000206A401C2062281EA5F10105F3DC204666
:100B1000FFF7CEFC2078000602D50220BDE8F08762
:100B20000120FBE72DE9FF4F0C461E464FF0FF3733
:100B30008BB0D2E90001DDF860800A908A46C1F3EB
:100B40000A5505B93D46002108464FF00000BAF1AC
:100B5000000F00F4400005DA00EB80004FF4400184
:100B600001EA50004FEA9059B9F1010F00DDB94692
:100B70000A9850EA4A000ED044F61050A5F2FF350C
:100B800045432F14B8F1000F1ED07542291E1EDDFB
:100B9000C9F100021CE0B8F1010F4FF0000001D0D4
:100BA000302103E0F24305E02154401CB042FBDB5E
:100BB00030460022002121540B99C1F80880C1E978
:100BC00000200FB0BDE8F08FBD1B6D1CDEE74A466C
:100BD00000DA694206A800F0F3FB06AB93E80700D1
:100BE00003AB83E8070050460A9907F073F88DE8D5
:100BF0000700A0F500501F3800900398002D0ADD73
:100C000042F21F014A460844002303A903906846A4
:100C100007F0DCFA09E0A0F500504A461F3800232F
:100C200003A90390684607F0E6FA8DE80700000480
:100C3000000C03D04FF0FF30410800E01046B8F13F
:100C4000000F03D00022009215461EE0751E05D449
:100C5000FFF7CAFE303262556D1EF9D5B346012248
:100C6000084302D000227F1C04E02078302801D104
:100C700000227F1E002A099784D01DE0112D07DA7B
:100C8000FFF7B2FE303262556D1C50EA0102F5D119
:100C9000084302D00098C8B10EE00021681E05E0AC
:100CA000235C625C63542254401E491C8142F7DB82
:100CB000AB46A81B401E0990002004F80B000B98BF
:100CC000099AC0F80880C0E9002B7AE711264FF096
:100CD000000857E72DE9F04F88460446D21D22F060
:100CE000070191B0D1E90001CDE90A0107F0BAFB93
:100CF00002460B98C00F01D02D2007E02068810725
:100D000001D52B2002E0202101EAC000032A09902E
:100D100001D0072A05DB03464146204600F010FBC0
:100D20000BE12078800601D5E06900E00620B8F1EB
:100D3000650F814606D0B8F1660F18D0B8F1670F7D
:100D400070D131E00020B9F1110F009001DB1123C7
:100D500001E009F101030AAA01A90CA8FFF7E2FECC
:100D6000DDE90C70002609F10105834647E001200A
:100D70004B4600904FF000470AAA01A90CA8FFF7C4
:100D8000D1FEDDE90DB00C995D46002610B909F1E0
:100D900001000D18B9EB050003D4C0F1FF3609F1CD
:100DA0000105A5EB09002BE0B9F1010F01DA4FF0C5
:100DB00001090020B9F1110F0090484601DD11230F
:100DC00000E003460AAA01A90CA8FFF7ABFEDDE983
:100DD0000C704D4600268346207800070AD4AB45A8
:100DE00000DA5D4601A8012D04DD411911F8011C4E
:100DF000302907D04F4502DA17F1040F04DA012039
:100E000082460FE06D1EEEE7002F02DCED1B3E4434
:100E100003E0781CA84200DD7D1CB81B00F1010A2C
:100E20004FF000472078000703D4AA4501DB4FF0BC
:100E3000FF3A0021B7F1004F0DF143088DF8431040
:100E400024D002202B23002F01DA7F422D230A21F8
:100E5000021EA0F1010000DC5FB197FBF1FC97FBE3
:100E6000F1F201FB1C7C17460CF1300C08F801CDA7
:100E7000EEE7A8F1010003702188090501D545219D
:100E800000E06521A0F1010800F8011C09980FA9F4
:100E9000A1EB0807FF1D00B10120411901EBEA7029
:100EA000A1693844081A401EA0612078C00602D407
:100EB0002046FFF7E7FA099828B1D4E901219047C5
:100EC000206A401C20622078C00622D52046FFF709
:100ED000D9FA1EE0002E04DBB34502DD01A8805DD7
:100EE00000E03020D4E901219047206A401C2062B4
:100EF000761CAAF101005FEA000A0AD100F01CFA90
:100F0000C0680168405CD4E901219047206A401C18
:100F10002062281EA5F10105DCDC07E0D4E90121EF
:100F200018F8010B9047206A401C2062381EA7F178
:100F30000107F3DC2046FFF7BBFA032011B041E6BE
:100F40002DE9F04F04460D46D21D22F0070089B06E
:100F5000D0E900974846394607F084FA0246F80F70
:100F600001D02D2307E02068810701D52B2302E063
:100F7000202101EAC0038DF820300BB1012000E0F0
:100F80000020032A824601D0072A04DB2946204696
:100F900000F0D6F93FE12078800601D40D2500E06D
:100FA000E569C7F30A560D2D49DA00214FEA175BB0
:100FB00008464FF00000002F00F4400007DA00EB75
:100FC00080004FF4400100EBD07001EA6000811511
:100FD000012901DD4FF0FF3100224FEA850CBCF101
:100FE000180F06D31346ACF118004FF08052C240E0
:100FF00003E04FF4801323FA0CF30CF10C0CBCF15A
:10100000200F04D3ACF1200C09FA0CF001E007FA30
:101010000CF000294FF0004801DD18B90FE00ED1A7
:1010200040450CD319EB02095F4121B9404502D17B
:101030009F4329EA0209BBEB175F00D0761C20888A
:10104000000502D57B48784402E07A487844193894
:1010500008AA302302F80A30037C0AF10101002EAD
:101060000AF1020A53546A4602DC4FF0300101E0F3
:101070004FF031014FF001088DF8001002D0A6F2B8
:10108000FF3603E059EA470100D06B4E002D02DC29
:101090002178090704D54FF002082E218DF80110A0
:1010A000C44600210BE0C7F303433F01C35C491C66
:1010B0006D1E02F80830052908F1010801DA002D3B
:1010C000F1DC00210CE000EB1973491C1B786D1E4C
:1010D000082902F808304FEA091908F1010801DA75
:1010E000002DF0DC21688B0602D516E0A8F101087E
:1010F000E04505DD02EB080313F8013C302BF5D089
:10110000B8F1000F09DD02EB080313F8013C2E2BA8
:1011100003D1090701D4A8F10108002D05DD3E2106
:1011200002F808106D1E08F10108407C002E02F83C
:10113000080008F1010804DA2D20764202F80800C0
:1011400002E02B2002F808000A214FF47A70864250
:1011500008F101080BDB96FBF0F3303302F808309E
:1011600096FBF0F308F1010800FB136601E0642E22
:101170000CDB642096FBF0F3303302F8083096FB6A
:10118000F0F308F1010800FB136601E00A2E06DB0C
:1011900096FBF1F0303002F8080008F1010896FBE8
:1011A000F1F001FB1060303002F80800A16908F18D
:1011B000010808EB050202EB0A00081AA06120787A
:1011C000C00602D42046FFF75DF9216A08AE01EBA4
:1011D0000A00206204E0D4E9012116F8010B9047CF
:1011E000BAF1010AF7D22078C00602D52046FFF7EF
:1011F00049F96E4609E016F8010B3E280FD0D4E9F4
:1012000001219047206A401C2062B8F10108F2D207
:101210002046FFF74DF909B00320BDE8F08F206AA2
:101220002844206203E0D4E90121302090476D1E5C
:10123000EBD3F8E7AA7E000002FCFFFF10B543697C
:1012400013B1AFF3008001E0FFF755F9012010BDA5
:10125000127800F124010A7000224A700122EDE7A1
:1012600011684FF0FF32E9E710B5436913B1AFF3EE
:10127000008001E0FFF7D6F9012010BD128800F1CF
:10128000240182840022C2840122EDE711684FF01C
:10129000FF32E9E72DE9F04116460C46054600F01D
:1012A00043F8036893F80101012807D0FF2C12D8F6
:1012B000185D80B101202C70BDE8F081D3F80701E2
:1012C0003246214603F20713C7182846BC46BDE83C
:1012D000F041002360474FF0FF30EDE7754600F026
:1012E000EBF8AE4605006946534620F007008546F8
:1012F00018B020B5FEF7FCFFBDE820404FF0000617
:101300004FF000074FF000084FF0000BAC46ACE880
:10131000C009ACE8C009ACE8C009ACE8C00921F0DC
:1013200007018D467047000010B500F005F8001D5C
:1013300010BD00BF9D710000004870477000002084
:101340002DE9F0411F46044603260168072A01F4EF
:10135000006004DB08B116A505E016A503E008B19E
:1013600015A500E015A521F010002060A069C01EA1
:10137000A0610FB1401EA0612046FFF783F84FB176
:10138000D4E9012138469047206A401C2062C01CE5
:10139000206206E0206AFAE7D4E9012115F8010B82
:1013A0009047761EF8D22046FFF782F8BDE8F0811C
:1013B0004E414E006E616E00494E4600696E6600F9
:1013C0002DE9F047814616468AB0354878440DC865
:1013D0008DE80D0032487844801C03AC0DC884E8C9
:1013E0000D0041F69B300844372190FBF1F290FB51
:1013F000F1F5A5F1800501FB12041B3C02D5644206
:10140000012000E00020DFF898A080460027FA4481
:10141000AAF1BE0A0EE0E0070AD03246684607EBA2
:10142000470101230AEB810106F0E5FE8DE8070084
:1014300064107F1C002CEED1194F7F44AE3F19E0A1
:10144000E80715D007EB04100DF1180A90E80E001C
:101450008AE80E00C068F04201D19819089032461F
:10146000012306A903A806F0C6FE03AB83E8070024
:101470006D10641C002DE3D14FF001033246694624
:10148000B8F1000F03A802D006F0A0FE01E006F0BC
:10149000B2FEC9E90001C9F808200AB0BDE8F0872A
:1014A000B47B000010B50446AFF300802046BDE8D1
:1014B0001040FEF708BF00000048704750000020B1
:1014C00030B44FF0013C50F8042B51F8043BCCFAF7
:1014D00052F4D51A20D1FCB950F8042B51F8043B32
:1014E000CCFA52F4D51A17D1B4B950F8042B51F8EC
:1014F000043BCCFA52F4D51A0ED16CB950F8042B37
:1015000051F8043BCCFA52F4D51A05D1002CDAD0AC
:1015100030BC4FF00000704729BAB1FA81F111F0E8
:101520001801D1F120008440F2D1CA40CB4012F022
:10153000FF0213F0FF0330BCD01A70470149182096
:10154000ABBEFEE7260002007047000080B582B007
:1015500001900198806B00900098006C10F0500F83
:101560003AD1FFE70099086C40F4007008640098D5
:101570000068806810F0405F2AD1FFE70098007E85
:1015800030BBFFE700980068C06A10F4700F07D006
:10159000FFE70098006880684005002818D4FFE73E
:1015A00000980168486820F0200048600099086CA5
:1015B00020F4807008640098006CC004002806D4F1
:1015C000FFE70099086C40F001000864FFE7FFE7BF
:1015D000009800F0F5FB10E00098006CC0060028B1
:1015E00004D5FFE7009800F0F3FB05E00098806B5E
:1015F000C16C01988847FFE7FFE702B080BD00009B
:1016000080B582B001900198806B009000994020D5
:1016100008640099486C40F004004864009800F0A9
:10162000D7FB02B080BD000080B582B00190019868
:10163000806B0090009800F0C7FB02B080BD0000F6
:1016400082B0019042F20030C4F201000090009993
:10165000486820F440304860019842680099486822
:101660001043486001980168486820F48070486021
:10167000019801680269486840EA022048600198C0
:101680000168486820F040704860019801688268ED
:1016900048681043486001980168886820F4006039
:1016A000886001980168C268886810438860019862
:1016B000806A0121C0F60071884219D0FFE70198C5
:1016C0000168886820F07060886001980168826A0B
:1016D00088681043886001980168886820F040504D
:1016E000886001980168C26A8868104388600CE0CD
:1016F00001980168886820F070608860019801682E
:10170000886820F040508860FFE701980168886889
:1017100020F0020088600198027E0168886840EA33
:1017200042008860019890F82000C8B1FFE7019856
:101730000168486840F400604860019801684868A2
:1017400020F46040486001980168426A4EF200004F
:10175000CFF6FF7000EB423248681043486006E065
:1017600001980168486820F400604860FFE701982C
:101770000168C86A20F47000C86201980168C269F3
:101780000020CFF6F07000EB0252C86A1043C86226
:1017900001980168886820F400708860019890F8CA
:1017A00030200168886840EA42208860019801681A
:1017B000886820F4806088600198016842698868C0
:1017C00040EA8220886002B070470000FFE7FEE731
:1017D00082B001900198007810384AF6AB21CAF621
:1017E000AA21A0FB011000090090009948F6AC70F6
:1017F000C0F60000405C0199C8650098042807D332
:10180000FFE701990868042262F30900886506E091
:101810000199086840F2FF3290438865FFE701981C
:10182000806D02B07047000086B0059000208DF8F2
:1018300013000598806A03900598806910BBFFE744
:101840000398029003281BD80299DFE801F0020DEB
:101850000218059890F82F00C00720B1FFE701207B
:101860008DF81300FFE70CE00598C06AB0F1C07F67
:1018700004D1FFE701208DF81300FFE701E000E04D
:10188000FFE745E005988069B0F5005F25D1FFE7E7
:101890000398019003281ED80199DFE801F00206A1
:1018A000021101208DF8130016E0059890F82F0022
:1018B000C00720B1FFE701208DF81300FFE70BE020
:1018C0000598C06AB0F1C07F04D1FFE701208DF810
:1018D0001300FFE700E0FFE719E0039800900328FA
:1018E00004D3FFE70098032804D00EE001208DF810
:1018F00013000BE0059890F82F00C00720B1FFE718
:1019000001208DF81300FFE700E0FFE7FFE7FFE7A6
:101910009DF8130006B0704784B0039002910192C5
:10192000009303980168086820F4802008600098FC
:1019300003990968486003988068402809D1FFE747
:101940000198039909688860029803990968C8603A
:1019500008E002980399096888600198039909686A
:10196000C860FFE704B070477047000083B0029082
:101970000191ADF80220029840F2B401C2F20001D8
:101980000860019840F2BC01C2F200010860BDF895
:10199000020040F2B801C2F20001088003B07047B3
:1019A00080B584B0ADF80C000291BDF80C00B0F524
:1019B000807F0ADBFFE7BDF80C00B0F5007F04DA9A
:1019C000FFE70B208DF8070003E003208DF80700E8
:1019D000FFE79DF807008DF805009DF80C008DF8D5
:1019E000060003F061FD40F2B400C2F2000000689E
:1019F0000DF1050102224FF0FF3301F095FF20B1F8
:101A0000FFE700208DF80F0016E040F2B400C2F2AC
:101A100000000068029901224FF0FF3301F0F6FD4B
:101A200020B1FFE700208DF80F0005E003F02AFD4C
:101A300001208DF80F00FFE79DF80F0004B080BD76
:101A400080B584B0ADF80C008DF80B10BDF80C001B
:101A5000B0F5807F0ADBFFE7BDF80C00B0F5007F32
:101A600004DAFFE70A208DF80A0003E002208DF86F
:101A70000A00FFE79DF80A008DF807009DF80C00AA
:101A80008DF808009DF80B008DF8090000F028F88B
:101A900020B9FFE700208DF80F001CE003F004FDE3
:101AA00040F2B400C2F2000000680DF10701032209
:101AB0004FF0FF3301F038FF20B1FFE700208DF831
:101AC0000F0008E003F0DEFC322000F087FC01206C
:101AD0008DF80F00FFE79DF80F0004B080BD0000F7
:101AE00080B582B006208DF8060003F0DDFC40F2E0
:101AF000B400C2F2000000680DF1060101224FF0AF
:101B0000FF3301F011FF20B1FFE700208DF807003F
:101B100005E003F0B7FC01208DF80700FFE79DF812
:101B2000070002B080BD000080B584B04FF40050C3
:101B300000F07CFC40F21020C2F200000021039172
:101B400002F06EFF039940F25820C2F2000002F04A
:101B500067FF039940F2A020C2F2000002F060FF8C
:101B6000039A40F2D401C2F20001012002900870F1
:101B700040F20040C4F202000190042100F066FE31
:101B80000198039A022100F061FE01980299039ADC
:101B900000F05CFE04B080BD81B0EFF3108072B63F
:101BA0000090FFE7FEE7000085B00390029100205F
:101BB0000190FFE7039890F83C00012804D1FFE76B
:101BC00002208DF81300F7E00399012081F83C0012
:101BD000FFE7FFE7029800680A281CD3FFE7029896
:101BE000008800EB4000A0F11E01072000FA01F27E
:101BF00003980168C8689043C8600299886809889A
:101C000001EB41011E3900FA01F203980168C8682E
:101C10001043C86018E00298008800EB40010720DC
:101C200000FA01F20398016808699043086102997B
:101C30008868098801EB410100FA01F20398016804
:101C4000086910430861FFE70298406806281BD81E
:101C5000FFE70298406800EB8000411F1F2000FA58
:101C600001F203980168486B904348630299088821
:101C7000496801EB8101053900FA01F20398016816
:101C8000486B104348633DE0029840680C281CD81C
:101C9000FFE70298406800EB8000A0F123011F20BD
:101CA00000FA01F203980168086B904308630299F7
:101CB0000888496801EB8101233900FA01F2039891
:101CC0000168086B104308631BE00298406800EB52
:101CD0008000A0F141011F2000FA01F20398016881
:101CE000C86A9043C86202990888496801EB81017B
:101CF000413900FA01F203980168C86A1043C862CA
:101D0000FFE7FFE742F20030C4F2010000900398C1
:101D1000006842F20001C4F2010188420BD1FFE7E2
:101D200002980068122806D1FFE70099486840F43D
:101D300080004860FFE70398006842F20001C4F2A7
:101D4000010188422ED1FFE702980068102805D0D3
:101D5000FFE702980068112824D1FFE7009948683E
:101D600040F40000486002980068102819D1FFE78D
:101D700040F20000C2F2000000684DF68361C4F238
:101D80001B31A0FB0110800C00EB80004000019093
:101D9000FFE7019820B1FFE7019801380190F8E7CB
:101DA000FFE7FFE7FFE70399002081F83C00FFE72A
:101DB00000208DF81300FFE79DF8130005B0704771
:101DC00081B0009001B0704781B0009001B07047C1
:101DD00081B0009001B0704780B584B002900020BF
:101DE0008DF80700029820B9FFE701208DF80F0059
:101DF00042E00298806A0121C0F60071884201D059
:101E0000FFE7FFE70298006C50B9FFE7029800F087
:101E100037F8029900204864029981F83C00FFE7F6
:101E20000298006CC006002817D4FFE70298006CE7
:101E300040F0020020F48850029908640298FFF7ED
:101E4000FFFB0299002048640298006C40F00100FA
:101E500020F002000299086403E001208DF80700D9
:101E6000FFE7FFE70299002081F83C00FFE79DF8BB
:101E700007008DF80F00FFE79DF80F0004B080BD4C
:101E800080B58AB0099000200890079006900590D0
:101E900004900998006842F20001C4F201018842EE
:101EA0005DD1FFE7FFE70020039043F64400C4F252
:101EB0000200016841F480710160006800F48070E4
:101EC00003900398FFE7FFE70020029043F63000FD
:101ED000C4F20200016841F001010160006800F0F5
:101EE000010002900298FFE704200490032005906F
:101EF0000020009006900020C4F2020004A900F027
:101F0000B1FA009940F25810C2F20000019046F276
:101F10001042C4F20202026041608160C1604FF46D
:101F2000806202614FF4006242614FF400528261AC
:101F30004FF48072C2610162416200F035F918B15C
:101F4000FFE7FFF729FEFFE7FFE7099840F2581186
:101F5000C2F20001816309988863FFE7FFE70AB0D6
:101F600080BD000080B586B00490039102920020ED
:101F70000190FFE7049890F83C00012804D1FFE7A6
:101F800002208DF817000BE10499012081F83C0034
:101F9000FFE7FFE7049800688068C007F0B9FFE733
:101FA00004980168886840F00100886040F20000F1
:101FB000C2F2000000684DF68361C4F21B31A0FB41
:101FC0000110800C00EB40000190FFE7019820B168
:101FD000FFE7019801380190F8E7FFE704980068EF
:101FE0008068C005002807D5FFE704980168886865
:101FF00020F480708860FFE7049800688068C0075C
:10200000002800F0BE80FFE70498006C40F4807068
:1020100040F20161884304990864049800684068AC
:102020004005002809D5FFE70498006C40F4805073
:1020300020F4005004990864FFE70498006CC00481
:10204000002806D5FFE70499486C20F00600486494
:1020500003E0049900204864FFE7FFE704990020AB
:1020600081F83C00FFE742F20030C4F2010000902A
:102070000498816B41F24D50C0F60000C86304988B
:10208000816B41F22960C0F6000008640498816BFE
:1020900041F20160C0F60000C864049801686FF066
:1020A0002200086004980168486840F08060486039
:1020B00004980168886840F480708860049801681A
:1020C000806B4C31039A029B00F026F9009840681F
:1020D000C006E8BBFFE70498006842F20001C4F2C2
:1020E0000101884224D0FFE70498006842F2001101
:1020F000C4F20101884208D1FFE742F20430C4F281
:1021000001000068C00698B1FFE70498006842F239
:102110000021C4F20101884219D1FFE742F20430E4
:10212000C4F20100006800F01F000F280FD8FFE77D
:1021300004980068806810F0405F07D1FFE70498BA
:102140000168886840F080408860FFE7FFE717E09B
:102150000498006842F20001C4F2010188420ED1E5
:10216000FFE704980068806810F0405F07D1FFE740
:1021700004980168886840F080408860FFE7FFE7C6
:102180000AE00499086C40F0100008640499486C57
:1021900040F001004864FFE700208DF81700FFE7DA
:1021A0009DF8170006B080BD80B586B00490002071
:1021B000039000F063FB0290049820B9FFE7012030
:1021C0008DF81700A3E00498406A08B1FFE7FFE725
:1021D0000499022081F83500FFE70499002081F876
:1021E0003400FFE704980168086820F001000860E7
:1021F000FFE7049800680068C00790B1FFE700F0AF
:102200003DFB0299401A06280AD3FFE704992020D3
:1022100048650499032081F835008DF8170076E0B1
:10222000E7E70498006800680390039848F23F01CC
:10223000CFF2100108400390049900914868D1F84A
:1022400008C0CB680A6940EA0C00184310434A6989
:1022500010438A691043CA691043096A014303980D
:10226000084303900498406A042808D1FFE70499C2
:10227000C86A096B0143039808430390FFE703987A
:1022800004990968086004980068406903900398FD
:1022900020F0070003900498416A039808430390D4
:1022A0000498406A04281AD1FFE70498816A0398C9
:1022B000084303900498C06A80B1FFE70498FFF7D1
:1022C000B3FA50B1FFE70499402048650499012012
:1022D00081F835008DF8170019E0FFE7FFE7039854
:1022E0000499096848610498FFF772FA019004980C
:1022F000C16D3F208840019988600499002048659D
:10230000049A012182F835108DF81700FFE79DF837
:10231000170006B080BD000080B588B0069005911A
:102320000492039300208DF80B000698806D0190B5
:10233000FFE7069890F83400012804D1FFE7022057
:102340008DF81F0045E00699012081F83400FFE771
:10235000FFE7069890F8350001282BD1FFE7069992
:10236000022081F8350006990020486506980599F5
:10237000049A039BFFF7D0FA0698C16D3F2088406E
:102380000199886006980168086840F016000860A6
:102390000698006C38B1FFE706980168086840F0BD
:1023A00008000860FFE706980168086840F001002F
:1023B000086009E0FFE70699002081F83400FFE794
:1023C00002208DF80B00FFE79DF80B008DF81F0031
:1023D000FFE79DF81F0008B080BD000080B584B005
:1023E000039000F04BFA029003980190019801309D
:1023F00048B1FFE740F24400C2F2000001780198C2
:1024000008440190FFE7FFE700F038FA0299401A0C
:102410000199884201D2FFE7F6E704B080BD0000D1
:1024200081B0ADF8020001B07047000080B582B005
:10243000ADF8060043F61440C4F201000068BDF890
:10244000061008420CD0FFE7BDF8060043F6144121
:10245000C4F201010860BDF80600FFF7E1FFFFE7E5
:1024600002B080BD8EB00D900C9100200A900990B2
:1024700008900B90FFE70B980F2800F2CC81FFE744
:102480000B99012088400A900C9800680A9908402E
:10249000099009980A99884240F0B881FFE70C98A2
:1024A000406800F00300012807D0FFE70C9840685F
:1024B00000F0030002282FD1FFE70D9880680890F4
:1024C0000B984100032000FA01F108988843089016
:1024D0000C98C0680B99490000FA01F1089808436C
:1024E000089008980D9988600D98406808900B999D
:1024F000012000FA01F10898884308900C98406880
:10250000C0F300100B9900FA01F1089808430890F5
:1025100008980D994860FFE70C98406800F00300A8
:10252000032818D0FFE70D98C06808900B98410069
:10253000032000FA01F10898884308900C988068FD
:102540000B99490000FA01F108980843089008988F
:102550000D99C860FFE70C98406800F0030002285E
:1025600026D1FFE70D980B996FF0030202EA5101A3
:102570000844006A08900B9800F0070081000F20C3
:1025800000FA01F10898884308900C9800690B99AB
:1025900001F00701890000FA01F10898084308904A
:1025A00008980D990B9B02EA530211440862FFE759
:1025B0000D98006808900B984100032000FA01F183
:1025C0000898884308900C98406800F003000B9925
:1025D000490000FA01F108980843089008980D99FD
:1025E00008600C9880798007002800F00E81FFE7D2
:1025F000FFE70020079043F64400C4F202000168A0
:1026000041F480410160006800F480400790079821
:10261000FFE70B9820F0030043F60801C4F2010124
:10262000405808900B9800F0030081000F2000FA3A
:1026300001F10898884308900D980021C4F2020126
:10264000884203D1FFE7002006905EE00D9840F23B
:102650000041C4F20201884203D1FFE70120059046
:1026600050E00D9840F60001C4F20201884203D107
:10267000FFE70220049042E00D9840F60041C4F2CA
:102680000201884203D1FFE70320039034E00D9854
:1026900041F20001C4F20201884203D1FFE70420A5
:1026A000029026E00D9841F20041C4F202018842F6
:1026B00003D1FFE70520019018E00D9841F60001D5
:1026C000C4F20201884203D1FFE7062000900AE02D
:1026D0000D9941F60042C4F202020820914208BF5F
:1026E00007200090FFE700980190FFE70198029013
:1026F000FFE702980390FFE703980490FFE7049830
:102700000590FFE705980690FFE70698C0B20B9981
:1027100001F00301890000FA01F1089808430890CC
:1027200008980B9921F0030143F60802C4F2010254
:10273000885043F60840C4F20100006808900999E7
:102740000898884308900C988079C006002805D521
:10275000FFE70999089808430890FFE7089843F6AF
:102760000841C4F20101086043F60C40C4F20100C4
:102770000068089009990898884308900C98807917
:102780008006002805D5FFE70999089808430890B6
:10279000FFE7089843F60C41C4F20101086043F6D4
:1027A0000440C4F201000068089009990898884321
:1027B00008900C9880798007002805D5FFE70999D3
:1027C000089808430890FFE7089843F60441C4F2CC
:1027D0000101086043F60040C4F20100006808905F
:1027E00009990898884308900C988079C00728B107
:1027F000FFE70999089808430890FFE7089843F60F
:102800000041C4F201010860FFE7FFE7FFE70B9812
:1028100001300B902FE60EB07047000082B001909F
:10282000ADF8021001980069BDF80210084204D00A
:10283000FFE701208DF8010003E000208DF8010082
:10284000FFE79DF8010002B07047000082B00190E0
:10285000ADF802108DF801209DF8010028B1FFE7C6
:10286000BDF802000199886105E0BDF8020000048E
:1028700001998861FFE702B07047000040F2943090
:10288000C2F200000068704740F24400C2F200004B
:10289000027840F29431C2F20001086810440860E6
:1028A0007047000080B543F60041C4F20201086899
:1028B00040F400700860086840F4806008600868B0
:1028C00040F480700860032000F08AF80C2000F0CB
:1028D00005F800F03BF8002080BD000080B582B014
:1028E000009040F20000C2F20000006840F2440193
:1028F000C2F200010A784FF47A71B1FBF2F1B0FB39
:10290000F1F001F0B1FB20B1FFE701208DF80700E5
:1029100018E000980F280DD8FFE700994FF0FF301E
:10292000002200F043F8009840F24801C2F2000192
:10293000086003E001208DF8070003E000208DF817
:102940000700FFE79DF8070002B080BD82B0FFE7F7
:102950000020019043F64400C4F20200016841F4F3
:1029600080410160006800F4804001900198FFE719
:10297000FFE70020009043F64000C4F20200016827
:1029800041F080510160006800F080500090009894
:10299000FFE702B07047000080B582B08DF80700F5
:1029A0009DF9070003F06AF902B080BD80B586B0DA
:1029B0008DF81700049103920020029003F076F93D
:1029C00002909DF91700019002980499039A02F071
:1029D000A7FB0146019803F071F906B080BD000025
:1029E00080B582B00190019803F08AF902B080BDF1
:1029F00080B584B002900191029820B9FFE70120D0
:102A00008DF80F0021E1019843F60041C4F2020164
:102A1000096801F00701884212D9FFE7019943F6DE
:102A20000040C4F202000170006800F00700019944
:102A3000884204D0FFE701208DF80F0005E1FFE791
:102A400002980078800700282AD5FFE702980078CE
:102A50004007002809D5FFE743F60801C4F2020148
:102A6000086840F4E0500860FFE70298007800072B
:102A7000002809D5FFE743F60801C4F202010868FF
:102A800040F460400860FFE743F60801C4F2020129
:102A9000086820F0F000029A926810430860FFE78F
:102AA00002980078C00700286ED0FFE702984068BF
:102AB000012811D1FFE743F60000C4F202000068CC
:102AC00000F400310020B0EB514F04D1FFE70120AA
:102AD0008DF80F00B9E02CE002984068022805D07C
:102AE000FFE702984068032811D1FFE743F6000092
:102AF000C4F20200006800F000710020B0EB516FDA
:102B000004D1FFE701208DF80F009EE010E043F6AE
:102B10000000C4F20200006800F002010020B0EBE7
:102B2000510F04D1FFE701208DF80F008DE0FFE782
:102B3000FFE743F60801C4F20201086820F0030031
:102B4000029A526810430860FFF798FE0090FFE772
:102B500043F60800C4F20200006800F00C0002997D
:102B60004968B0EB810F0ED0FFE7FFF787FE0099B1
:102B7000401A41F28931884204D3FFE703208DF8DF
:102B80000F0062E0E4E7FFE7019843F60041C4F27A
:102B90000201096801F00701884212D2FFE701999A
:102BA00043F60040C4F202000170006800F0070024
:102BB0000199884204D0FFE701208DF80F0044E01E
:102BC000FFE702980078400700280CD5FFE743F69E
:102BD0000801C4F20201086820F4E050029AD268A9
:102BE00010430860FFE702980078000700280DD521
:102BF000FFE743F60801C4F20201086820F46040D0
:102C0000029A126940EAC2000860FFE700F028F863
:102C100043F60801C4F202010968C9B20A0948F67C
:102C20009C71C0F60001895CC84040F20001C2F20C
:102C30000001086040F24800C2F200000068FFF79F
:102C40004DFE00208DF80F00FFE79DF80F0004B047
:102C500080BD000040F20000C2F200000068704732
:102C600080B586B00020059004900390029043F652
:102C70000800C4F20200006800F00C000146019157
:102C800040B1FFE7019804280AD0FFE7019808281F
:102C90000CD04FE042F20040C0F2F40002904FE04E
:102CA00041F20020C0F27A00029049E043F60400AD
:102CB000C4F20200016801F03F0105910068400282
:102CC000002813D5FFE743F60400C4F202000068B1
:102CD000C0F3881041F20021C0F27A01A0FB01018B
:102CE000059A0023FDF716FB049012E043F604005A
:102CF000C4F202000068C0F3881042F20041C0F242
:102D0000F401A0FB0101059A0023FDF703FB0490E9
:102D1000FFE743F60400C4F20200006800F440310B
:102D2000022000EBD130039004980399B0FBF1F03E
:102D3000029005E042F20040C0F2F4000290FFE78A
:102D4000029806B080BD000080B586B0049004985B
:102D500020B9FFE701208DF8170050E304980078B0
:102D6000C007002800F0A580FFE743F60800C4F282
:102D70000200006800F00C00042813D0FFE743F6BF
:102D80000800C4F20200006800F00C0008281ED100
:102D9000FFE743F60400C4F2020000684002002886
:102DA00015D5FFE743F60000C4F20200006800F406
:102DB00000310020B0EB514F08D0FFE70498406885
:102DC00020B9FFE701208DF8170018E370E0FFE756
:102DD00004984068B0F5803F09D1FFE743F6000151
:102DE000C4F20201086840F48030086020E00498D2
:102DF0004068B0F5A02F0DD1FFE743F60001C4F203
:102E00000201086840F480200860086840F48030BF
:102E100008600CE043F60001C4F20201086820F4E7
:102E200080300860086820F480200860FFE7FFE732
:102E3000FFE704984068E8B1FFE7FFF71FFD039044
:102E4000FFE743F60000C4F20200006800F400311E
:102E50000020B0EB514F0CD1FFE7FFF70FFD0399B6
:102E6000401A652804D3FFE703208DF81700C6E257
:102E7000E7E71CE0FFF702FD0390FFE743F60000E1
:102E8000C4F20200006800F400310020B0EB514FA2
:102E90000CD0FFE7FFF7F2FC0399401A652804D332
:102EA000FFE703208DF81700A9E2E7E7FFE7FFE758
:102EB000FFE7049800788007002840F19680FFE73C
:102EC00043F60800C4F20200006810F00C0F13D0A3
:102ED000FFE743F60800C4F20200006800F00C00AF
:102EE00008282CD1FFE743F60400C4F20200006872
:102EF0004002002823D4FFE743F60000C4F202009A
:102F0000006800F002010020B0EB510F09D0FFE78C
:102F10000498C068012804D0FFE701208DF817004D
:102F20006DE243F60001C4F20201086820F0F800E7
:102F3000049A126940EAC2000860FFE754E004986E
:102F4000C06870B3FFE70021C4F247210120086088
:102F5000FFF794FC0390FFE743F60000C4F2020081
:102F6000006800F002010020B0EB510F0CD1FFE728
:102F7000FFF784FC0399401A032804D3FFE70320DA
:102F80008DF817003BE2E7E743F60001C4F20201C7
:102F9000086820F0F800049A126940EAC20008604C
:102FA00021E00021C4F2472100200860FFF766FC01
:102FB0000390FFE743F60000C4F20200006800F04F
:102FC00002010020B0EB510F0CD0FFE7FFF756FCD9
:102FD0000399401A032804D3FFE703208DF8170054
:102FE0000DE2E7E7FFE7FFE7FFE704980078000757
:102FF00000284BD5FFE70498406918B3FFE740F677
:103000008061C4F2472101200860FFF737FC03907C
:10301000FFE743F67400C4F20200006800F002010A
:103020000020B0EB510F0CD1FFE7FFF727FC03990D
:10303000401A032804D3FFE703208DF81700DEE1D0
:10304000E7E722E040F68061C4F2472100200860F3
:10305000FFF714FC0390FFE743F67400C4F202008C
:10306000006800F002010020B0EB510F0CD0FFE728
:10307000FFF704FC0399401A032804D3FFE7032059
:103080008DF81700BBE1E7E7FFE7FFE7049800785A
:103090004007002840F1CE80FFE700208DF80700B0
:1030A00043F64000C4F202000068C000002815D4B6
:1030B000FFE7FFE70020009043F64000C4F2020063
:1030C000016841F080510160006800F0805000907C
:1030D0000098FFE701208DF80700FFE747F20000A6
:1030E000C4F200000068C005002822D4FFE747F2C0
:1030F0000001C4F20001086840F480700860FFF726
:10310000BDFB0390FFE747F20000C4F20000006837
:10311000C00500280CD4FFE7FFF7B0FB0399401A65
:10312000032804D3FFE703208DF8170067E1EAE7DF
:10313000FFE7FFE704988068012809D1FFE743F61D
:103140007001C4F20201086840F0010008601FE04D
:103150000498806805280DD1FFE743F67001C4F29A
:103160000201086840F004000860086840F00100AF
:1031700008600CE043F67001C4F20201086820F018
:1031800001000860086820F004000860FFE7FFE71E
:10319000FFE704988068F8B1FFE7FFF76FFB039043
:1031A000FFE743F67000C4F20200006800F002017D
:1031B0000020B0EB510F0ED1FFE7FFF75FFB039943
:1031C000401A41F28931884204D3FFE703208DF889
:1031D000170014E1E5E71EE0FFF750FB0390FFE75F
:1031E00043F67000C4F20200006800F00201002003
:1031F000B0EB510F0ED0FFE7FFF740FB0399401AE9
:1032000041F28931884204D3FFE703208DF817008B
:10321000F5E0E5E7FFE79DF80700012809D1FFE7A2
:1032200043F64001C4F20201086820F080500860B3
:10323000FFE7FFE704988069002800F0DC80FFE7E3
:1032400043F60800C4F20200006800F00C000828F1
:1032500000F08580FFE70498806902285CD1FFE7D1
:103260006021C4F2472100200860FFF707FB0390AC
:10327000FFE743F60000C4F20200006800F00071AE
:103280000020B0EB516F0CD0FFE7FFF7F7FA03997E
:10329000401A032804D3FFE703208DF81700AEE09F
:1032A000E7E70499C869D1F820C04B6A8A6A40EA06
:1032B0000C0040EA8310D2034FF6FF739A43A2F545
:1032C00080321043C96A40EA016043F60401C4F247
:1032D000020108606021C4F2472101200860FFF765
:1032E000CDFA0390FFE743F60000C4F20200006845
:1032F00000F000710020B0EB516F0CD1FFE7FFF739
:10330000BDFA0399401A032804D3FFE703208DF880
:10331000170074E0E7E721E06021C4F247210020B4
:103320000860FFF7ABFA0390FFE743F60000C4F232
:103330000200006800F000710020B0EB516F0CD06B
:10334000FFE7FFF79BFA0399401A032804D3FFE72E
:1033500003208DF8170052E0E7E7FFE74AE0049802
:103360008069012804D1FFE701208DF8170046E0AD
:1033700043F60400C4F202000068029004988069D9
:10338000012831D0FFE7029800F480000499C96950
:10339000884229D1FFE7029800F03F000499096AAA
:1033A000884221D1FFE7029847F6C071084004998E
:1033B000496AB0EB811F17D1FFE7029800F4403053
:1033C0000499896AC9034FF6FF729143A1F58031D0
:1033D000884209D1FFE7029800F070600499C96A39
:1033E000B0EB016F04D0FFE701208DF8170006E075
:1033F000FFE7FFE7FFE700208DF81700FFE79DF8E4
:10340000170006B080BD000080B584B0029002981D
:1034100020B9FFE701208DF80F0080E00298406A94
:1034200060B9FFE702984068B0F5827F01D1FFE7FD
:1034300003E002990020C861FFE705E0029900203F
:10344000086102994861FFE70298806AB0F5005F61
:1034500001D1FFE7FFE7029890F8510040B9FFE77C
:103460000299002081F85000029800F05DF8FFE713
:103470000299022081F8510002980168086820F042
:1034800040000860029A019211685068D2F808C0A2
:10349000D36800F482700CF4044C604403F40063BD
:1034A0001844136903F002031844536903F001033D
:1034B0001844936903F400731844D36903F0380384
:1034C0001844136A03F080031843926A02F400520E
:1034D00010430860029A508B00F004001168526A91
:1034E00002F01002104448600298806AB0F5005F54
:1034F00005D1FFE70299888D09680861FFE7029806
:103500000168C86920F40060C8610299002048651C
:10351000029A012182F851108DF80F00FFE79DF803
:103520000F0004B080BD000080B58EB00D9000206B
:103530000C900B900A90099008900D98006843F247
:103540000001C4F2010188425ED1FFE7FFE70020DD
:10355000079043F64400C4F20200016841F4805130
:103560000160006800F4805007900798FFE7FFE7CC
:103570000020069043F63000C4F20200016841F0DA
:1035800001010160006800F0010006900698FFE765
:10359000FFE70020059043F63000C4F20200016806
:1035A00041F002010160006800F0020005900598FA
:1035B000FFE78020089002200090099000200190F1
:1035C0000A90032002900B90052003900C9000209D
:1035D000C4F2020008A90491FEF744FFDDF800C020
:1035E000019B029A039804994FF0180ECDF820E041
:1035F000CDF824C00A930B920C9040F20040C4F224
:103600000200FEF72FFFFFE70EB080BD80B58AB045
:1036100008900791ADF81A200593002004908DF8CA
:103620000B0008984068B0F5827F16D1FFE7089834
:10363000806890B9FFE70899042081F85100089844
:10364000079ABDF81A300599EC46CCF800101146DF
:1036500000F0CEFA8DF8270061E1FFE7089890F8B6
:103660005000012804D1FFE702208DF8270056E121
:103670000899012081F85000FFE7FFE7FFF7FEF807
:103680000390089890F85100012804D0FFE7022029
:103690008DF80B0034E1079820B1FFE7BDF81A0060
:1036A00020B9FFE701208DF80B0029E108990420DB
:1036B00081F851000899002048650799089A91639C
:1036C000BDF81A10089A9187BDF81A10089AD18788
:1036D00008990863089988860899C8860899086433
:1036E000089948640898806AB0F5005F13D1FFE735
:1036F000FFE708980168086820F4005008600898FF
:103700000168086840F400500860FFE70899C88F16
:103710000138C887FFE708988068B0F5004F0DD1E1
:10372000FFE708980168086820F0400008600898E2
:103730000168086820F480400860FFE70898006886
:10374000006800F04000402807D0FFE708980168B3
:10375000086840F040000860FFE70898C06880BB38
:10376000FFE7FFE70898C08F50B3FFE708980068AD
:103770008068C00778B1FFE708980068007B089967
:10378000896B08700899886B013088630899C88F25
:103790000138C88713E0FFF771F80399401A0599BB
:1037A000884204D3FFE70598013018B9FFE7059870
:1037B00020B9FFE703208DF80B00A1E0FFE7D1E778
:1037C0002FE0FFE70898C08F50B3FFE70898006824
:1037D0008068C00778B1FFE708980068C06808995A
:1037E000896B08800899886B023088630899C88FB4
:1037F0000138C88713E0FFF741F80399401A05998B
:10380000884204D3FFE70598013018B9FFE705980F
:1038100020B9FFE703208DF80B0071E0FFE7D1E747
:10382000FFE70898806AB0F5005F43D1FFE708988A
:103830000168086840F4805008600898059B039967
:103840006A4611600122114601F086FD20B1FFE7B2
:1038500003208DF80B0053E00898C068B0F5006FA6
:1038600007D1FFE708980068C0680899896B08804D
:1038700006E008980068007B0899896B0870FFE7EC
:103880000898059B03996A4611600122114601F0D0
:1038900063FD48B1FFE70899486D40F002004865B4
:1038A00003208DF80B002BE008980068C068049096
:1038B0000498FFE708980599039A01F089FC20B164
:1038C000FFE7089920204865FFE7089800688068AE
:1038D000C00600280BD5FFE70899486D40F00200AC
:1038E0004865089801684FF6EF708860FFE7089810
:1038F000406D20B1FFE701208DF80B00FFE7FFE7E7
:103900000899012081F85100FFE70899002081F80B
:103910005000FFE79DF80B008DF82700FFE79DF8AA
:1039200027000AB080BD000080B588B006900591E0
:10393000ADF81220039300208DF80700FFE70698EA
:1039400090F85000012804D1FFE702208DF81F00F5
:103950004AE10699012081F85000FFE7FFE7FEF7F2
:103960008DFF0290BDF81200ADF80400069890F8A3
:103970005100012804D0FFE702208DF8070024E160
:10398000059820B1FFE7BDF8120020B9FFE701203C
:103990008DF8070019E10699032081F85100069976
:1039A000002048650599069A1163BDF81210069A21
:1039B0009186BDF81210069AD186069988630699F9
:1039C00088870699C8870699486406990864069806
:1039D0008068B0F5004F0DD1FFE7069801680868D0
:1039E00020F04000086006980168086840F48040B4
:1039F0000860FFE70698806AB0F5005F0FD1FFE727
:103A0000FFE706980168086820F4005008600698EF
:103A10000168086840F400500860FFE7FFE7069877
:103A20000068006800F04000402807D0FFE70698D3
:103A30000168086840F040000860FFE70698C06829
:103A4000B0F5006F47D1FFE70698406828B1FFE75F
:103A5000BDF8040001280ED1FFE706980168006B4D
:103A60000088C8600699086B023008630699C88E02
:103A70000138C886FFE7FFE70698C08E50B3FFE71E
:103A8000069800688068800700280ED5FFE7069832
:103A90000168006B0088C8600699086B02300863F3
:103AA0000699C88E0138C88613E0FEF7E7FE029932
:103AB000401A0399884204D3FFE70398013018B9EC
:103AC000FFE7039820B9FFE703208DF807007CE0AB
:103AD000FFE7D1E746E00698406828B1FFE7BDF868
:103AE000040001280ED1FFE706980168006B0078FA
:103AF00008730699086B013008630699C88E01386F
:103B0000C886FFE7FFE70698C08E50B3FFE7069828
:103B100000688068800700280ED5FFE706980168D6
:103B2000006B007808730699086B013008630699EA
:103B3000C88E0138C88613E0FEF7A0FE0299401A2D
:103B40000399884204D3FFE70398013018B9FFE7CF
:103B5000039820B9FFE703208DF8070035E0FFE761
:103B6000D1E7FFE70698806AB0F5005F07D1FFE76D
:103B700006980168086840F480500860FFE70698DE
:103B80000399029A01F096FB20B1FFE706992020E5
:103B90004865FFE70698806870B9FFE7FFE70020F7
:103BA000009006980068C0680090069800688068D9
:103BB00000900098FFE7FFE70698406D20B1FFE70F
:103BC00001208DF80700FFE7FFE70699012081F843
:103BD0005100FFE70699002081F85000FFE79DF8AB
:103BE00007008DF81F00FFE79DF81F0008B080BD9B
:103BF00080B590B0DDF848C00E900D910C92ADF8F4
:103C00002E3000200790012106918DF81700FFE764
:103C10000E9890F85000012804D1FFE702208DF89B
:103C20003F0002E20E99012081F85000FFE7FFE714
:103C3000FEF724FE08900E9890F851008DF82700AA
:103C40000E9840680A90BDF82E00ADF82C009DF843
:103C50002700012812D0FFE70A98B0F5827F09D12A
:103C6000FFE70E98806828B9FFE79DF82700042831
:103C700004D0FFE702208DF81700C7E10D9838B196
:103C8000FFE70C9820B1FFE7BDF82E0020B9FFE751
:103C900001208DF81700B9E10E9890F85100042822
:103CA00005D0FFE70E99052081F85100FFE70E9936
:103CB000002048650C990E9A9163BDF82E100E9A5B
:103CC000D187BDF82E100E9A91870D990E9A116327
:103CD000BDF82E100E9AD186BDF82E100E9A918640
:103CE0000E9908640E9948640E98806AB0F5005FDA
:103CF0000FD1FFE7FFE70E980168086820F4005035
:103D000008600E980168086840F400500860FFE7FA
:103D1000FFE70E980068006800F04000402807D0D8
:103D2000FFE70E980168086840F040000860FFE770
:103D30000E98C068B0F5006F40F08880FFE70E98DD
:103D4000406828B1FFE7BDF82C0001280ED1FFE73D
:103D50000E980168006B0088C8600E99086B0230ED
:103D600008630E99C88E0138C886FFE7FFE70E98F2
:103D7000C18E0120039039B9FFE70E98C08F00284B
:103D800018BF01200390FFE70398C00700285CD00C
:103D9000FFE70E98006880688007002829D5FFE7B4
:103DA0000E98C08E28B3FFE70698012821D1FFE7BF
:103DB0000E980168006B0088C8600E99086B02308D
:103DC00008630E99C88E0138C886002006900E98A8
:103DD000C08E68B9FFE70E98806AB0F5005F07D122
:103DE000FFE70E980168086840F480500860FFE71C
:103DF000FFE70E9800688068C007A8B1FFE70E983B
:103E0000C08F88B1FFE70E980068C0680E99896B73
:103E100008800E99886B023088630E99C88F01382C
:103E2000C88701200690FFE7FEF728FD0899401A91
:103E30001299884208D3FFE71298013020B1FFE7BA
:103E400003208DF81700E1E091E789E00E984068C3
:103E500028B1FFE7BDF82C0001280ED1FFE70E982E
:103E60000168006B007808730E99086B01300863D5
:103E70000E99C88E0138C886FFE7FFE70E98C18EFD
:103E80000120029039B9FFE70E98C08F002818BFB3
:103E900001200290FFE70298C00700285FD0FFE7EB
:103EA0000E98006880688007002829D5FFE70E98E3
:103EB000C08E28B3FFE70698012821D1FFE70E98AE
:103EC0000168006B007808730E99086B0130086375
:103ED0000E99C88E0138C886002006900E98C08EB4
:103EE00068B9FFE70E98806AB0F5005F07D1FFE779
:103EF0000E980168086840F480500860FFE7FFE70B
:103F00000E9800688068C007A8B1FFE70E98C08FC0
:103F100088B1FFE70E980068C0680E99896B087039
:103F20000E99886B013088630E99C88F0138C88755
:103F300001200690FFE7FEF7A1FC0899401A1299AC
:103F4000884204D3FFE71298013018B9FFE71298AE
:103F500020B9FFE703208DF8170057E08EE7FFE751
:103F60000E98806AB0F5005F1AD1FFE70E98129B99
:103F700008996A4611600122114601F0EDF948B135
:103F8000FFE70E99486D40F00200486503208DF868
:103F900017003BE00E980068C06807900798FFE79D
:103FA0000E9800688068C00600280ED5FFE70E99BD
:103FB000486D40F0020048650E9801684FF6EF70BA
:103FC000886001208DF81700FFE70E981299089A73
:103FD00001F070F938B1FFE701208DF817000E9954
:103FE0002020486512E00E98806870B9FFE7FFE76F
:103FF000002004900E980068C06804900E98006835
:10400000806804900498FFE7FFE7FFE70E9901201E
:1040100081F85100FFE70E99002081F85000FFE77A
:104020009DF817008DF83F00FFE79DF83F0010B0A6
:1040300080BD000081B000900098042809D1FFE7FE
:104040004EF21001CEF20001086840F00400086052
:1040500008E04EF21001CEF20001086820F00400E2
:104060000860FFE701B0704780B582B00190019809
:1040700001F02EFA02B080BD85B003900291FFE7F7
:10408000039890F83C00012804D1FFE702208DF846
:1040900013007EE00399012081F83C00FFE7FFE771
:1040A0000399022081F83D00039800684068019060
:1040B0000398006880680090019820F070000190DB
:1040C00002980168019808430190019803990968D2
:1040D0004860039800680021C4F2010188423CD086
:1040E000FFE703980068B0F1804F36D0FFE70398F0
:1040F000006840F20041C4F2000188422DD0FFE781
:104100000398006840F60001C4F20001884224D000
:10411000FFE70398006840F60041C4F200018842BE
:104120001BD0FFE70398006840F20041C4F2010190
:10413000884212D0FFE70398006844F20001C4F2FD
:104140000101884209D0FFE70398006841F60001A9
:10415000C4F2000188420ED1FFE7009820F08000F1
:1041600000900298416800980843009000980399D5
:1041700009688860FFE70399012081F83D00FFE7A7
:104180000399002081F83C00FFE700208DF8130020
:10419000FFE79DF8130005B07047000080B586B0BA
:1041A00004900391049820B9FFE701208DF81700CF
:1041B00088E0049890F83D0040B9FFE7049900209A
:1041C00081F83C00049800F081F8FFE70499022090
:1041D00081F83D0004980168886844F20702904322
:1041E0008860049951F8040B01F00CFA04980068F7
:1041F00080680290049800688069019004980068C3
:10420000006A0090039801680298084302900198A0
:1042100040F203318843019003998868896940EA34
:104220000121019808430190019840F60C41884310
:10423000019001984FF2F001884301900399C868FA
:10424000C96940EA0121019808430190039908696E
:10425000096A000140EA0131019808430190009881
:1042600020F022000090009820F088000090039930
:104270004868496940EA0111009808430090029893
:104280000499096888600198049909688861009810
:104290000499096808620499012081F8460004998C
:1042A00081F83E00049981F83F00049981F84200AA
:1042B000049981F84300049981F83D0000208DF8AD
:1042C0001700FFE79DF8170006B080BD80B588B0E5
:1042D00007900020069005900490039002900798A4
:1042E000006840F60041C4F20001884231D1FFE786
:1042F000FFE70020019043F64000C4F2020001688D
:1043000041F008010160006800F008000190019888
:10431000FFE7FFE70020009043F63000C4F2020000
:10432000016841F001010160006800F001000090A7
:104330000098FFE7032002900220039000210491DF
:10434000059106900020C4F2020002A9FEF78AF847
:10435000FFE708B080BD000080B586B004900391EF
:10436000049890F83E008DF80B00049890F83F00F8
:104370008DF80A00049890F842008DF8090004981E
:1043800090F843008DF808000398B8B9FFE79DF84E
:104390000B00012805D1FFE79DF80900012804D092
:1043A000FFE701208DF8170079E00499022081F8D9
:1043B0003E00049981F84200FFE742E00398042898
:1043C00017D1FFE79DF80A00012805D1FFE79DF806
:1043D0000800012804D0FFE701208DF817005EE0F7
:1043E0000499022081F83F00049981F84300FFE717
:1043F00026E09DF80B0001280FD1FFE79DF80A0089
:1044000001280AD1FFE79DF80900012805D1FFE73F
:104410009DF80800012804D0FFE701208DF817005F
:104420003DE00499022081F83E00049981F83F00A4
:10443000049981F84200049981F84300FFE7FFE7FF
:10444000FFE70398019020B1FFE70198042807D007
:104450000DE0049800680021012201F0A1F914E0A8
:10446000049800680421012201F09AF90DE00498F3
:10447000006800210122009201F092F9009A04984C
:104480000068042101F08CF9FFE7049801680868CE
:1044900040F00100086000208DF81700FFE79DF84C
:1044A000170006B080BD000080B58AB009900020DA
:1044B0000890079006900590049009980068B0F164
:1044C000804F21D1FFE7FFE70020039043F6300043
:1044D000C4F20200016841F001010160006800F0CF
:1044E000010003900398FFE720200490022005902C
:1044F000002006900790012008900020C4F20200DE
:1045000004A9FDF7AFFF54E00998006840F20041AC
:10451000C4F20001884220D1FFE7FFE700200290AB
:1045200043F63000C4F20200016841F0010101606D
:10453000006800F0010002900298FFE7402004901C
:104540000220059000210691079108900020C4F2F6
:10455000020004A9FDF786FF2AE00998006840F6EA
:104560000001C4F20001884221D1FFE7FFE70020EB
:10457000019043F63000C4F20200016841F00201EC
:104580000160006800F0020001900198FFE7402000
:10459000049002200590002106910791089040F2B6
:1045A0000040C4F2020004A9FDF75CFFFFE7FFE74B
:1045B000FFE70AB080BD000080B586B0049003918B
:1045C000029200208DF80700FFE7049890F83C0065
:1045D000012804D1FFE702208DF8170089E0049933
:1045E000012081F83C00FFE7FFE7029800900C28CB
:1045F00000F270800099DFE801F0076D6D6D206DAD
:104600006D6D3A6D6D6D530004980068039901F06B
:10461000E3F804980168886940F00800886104980C
:104620000168886920F00400886103980269049891
:10463000016888691043886150E004980068039914
:1046400001F040F904980168886940F400608861CD
:1046500004980168886920F4806088610398026981
:1046600004980168886940EA0220886136E004986D
:104670000068039901F0A0F904980168C86940F046
:104680000800C86104980168C86920F00400C86186
:104690000398026904980168C8691043C8611DE065
:1046A00004980068039901F001FA04980168C86948
:1046B00040F40060C86104980168C86920F4806013
:1046C000C8610398026904980168C86940EA022039
:1046D000C86103E001208DF80700FFE7FFE70499B8
:1046E000002081F83C00FFE79DF807008DF81700D7
:1046F000FFE79DF8170006B080BD000080B582B0CE
:104700000090009820B9FFE701208DF807003FE0F6
:10471000009890F83D0040B9FFE70099002081F82B
:104720003C00009800F038F8FFE70099022081F87B
:104730003D00009951F8040B00F064FF009901203E
:1047400081F84600FFE70099012081F83E000099BA
:1047500081F83F00009981F84000009981F84100FC
:10476000FFE7FFE70099012081F84200009981F8F6
:104770004300009981F84400009981F84500FFE763
:104780000099012081F83D0000208DF80700FFE727
:104790009DF8070002B080BD80B586B005900598F1
:1047A0000068B0F1804F1BD1FFE7FFE700200490C5
:1047B00043F64000C4F20200016841F001010160CB
:1047C000006800F0010004900498FFE71C200190AD
:1047D0000A210022FEF7EAF80198FEF7DDF837E03B
:1047E0000598006840F20041C4F20001884212D1ED
:1047F000FFE7FFE70020039043F64000C4F2020009
:10480000016841F002010160006800F002000390BD
:104810000398FFE71BE00598006840F60001C4F22A
:104820000001884212D1FFE7FFE70020029043F623
:104830004000C4F20200016841F004010160006818
:1048400000F0040002900298FFE7FFE7FFE7FFE7B0
:1048500006B080BD80B58CB00A900991099828B93E
:10486000FFE70A9890F83E0007901CE0099804289A
:1048700005D1FFE70A9890F83F00069010E00998EC
:10488000082805D1FFE70A9890F84000059004E059
:104890000A9890F841000590FFE705980690FFE719
:1048A00006980790FFE70798012804D0FFE701204A
:1048B0008DF82F00AFE0099828B9FFE70A99022088
:1048C00081F83E001EE00998042806D1FFE70A9906
:1048D000022081F83F00049012E00998082806D1D0
:1048E000FFE70A99022081F84000039005E00A9949
:1048F000022081F841000390FFE703980490FFE74E
:104900000498FFE70A98006809990122019200F0D3
:1049100047FF01980A9909680022C4F201029142F6
:1049200002900CD0FFE70A9800684FF60041CBF6E2
:10493000FE710844B0FA80F040090290FFE7029847
:10494000C00738B1FFE70A980168486C40F400409E
:104950004864FFE70A9800680021C4F20101884218
:104960003CD0FFE70A980068B0F1804F36D0FFE7EF
:104970000A98006840F20041C4F2000188422DD03C
:10498000FFE70A98006840F60001C4F2000188427F
:1049900024D0FFE70A98006840F60041C4F2000105
:1049A00088421BD0FFE70A98006840F20041C4F239
:1049B0000101884212D0FFE70A98006844F2000122
:1049C000C4F20101884209D0FFE70A98006841F665
:1049D0000001C4F20001884212D1FFE70A98006882
:1049E000806800F0070008900898062807D0FFE7C5
:1049F0000A980168086840F001000860FFE706E0D7
:104A00000A980168086840F001000860FFE700208C
:104A10008DF82F00FFE79DF82F000CB080BD00003F
:104A200080B586B00590049105980068049900222D
:104A300000F0B6FE0598016801200022C4F20102D0
:104A4000914203900CD0FFE7059800684FF60041B3
:104A5000CBF6FE710844B0FA80F040090390FFE7FE
:104A60000398C007D8B1FFE7FFE705980068006A20
:104A700041F21111084210D1FFE705980068006A61
:104A800040F24441084207D1FFE705980168486CAD
:104A900020F400404864FFE7FFE7FFE7FFE7FFE798
:104AA00005980068006A41F21111084210D1FFE731
:104AB00005980068006A40F24441084207D1FFE7C8
:104AC00005980168086820F001000860FFE7FFE72B
:104AD000FFE7049828B9FFE70599012081F83E0017
:104AE0001EE00498042806D1FFE70599012081F80B
:104AF0003F00029012E00498082806D1FFE70599CC
:104B0000012081F84000019005E00599012081F81D
:104B100041000190FFE701980290FFE70298FFE74C
:104B2000002006B080BD0000FFE7FEE780B584B03E
:104B30001821C4F2020101914FF4805002900860E4
:104B40004FF07060086040F61801C4F202014FF0A7
:104B5000407008600A20039001F006F901994FF0B7
:104B600080500860202002F07BFE019902980860C6
:104B70002A2002F0E1FE039801F0E0F80C2002F098
:104B8000DBFE039801F0DAF8012002F0D5FE03986D
:104B900001F0D4F8022002F0CFFE039801F0CEF825
:104BA000062002F0C9FE322001F0C8F804B080BD32
:104BB00080B582B01821C4F2020101914FF08050FB
:104BC0000860012002F0B8FE322001F0B7F80220A0
:104BD00002F0B2FE01994FF48050086002B080BD2F
:104BE00080B586B000220092059204920392029250
:104BF00040F21010C2F20000019042F20001C4F233
:104C0000010101604FF48031416082600261012145
:104C1000017680F82020C2620123C0F6007383620F
:104C2000C260C16180F830104161FDF7D5F818B15C
:104C3000FFE7FCF7B1FFFFE702200290012003909D
:104C40000320049040F21010C2F2000002A9FCF709
:104C5000ABFF18B1FFE7FCF79FFFFFE706B080BD91
:104C600081B0FFE70020009043F63000C4F202005C
:104C7000016841F480010160006800F48000009048
:104C80000098FFE701B0704780B592B00020119006
:104C900010900F900E900D90FFE700200C9043F6BF
:104CA0003000C4F20200016841F0040101600068B4
:104CB00000F004000C900C98FFE7FFE700200B9039
:104CC00043F63000C4F20200016841F08001016047
:104CD000006800F080000B900B98FFE7FFE70020D2
:104CE0000A9043F63000C4F20200016841F001016D
:104CF0000160006800F001000A900A98FFE7FFE7F2
:104D00000020099043F63000C4F20200016841F02F
:104D100002010160006800F0020009900998FFE7B5
:104D2000FFE70020089043F63000C4F2020001685B
:104D300041F008010160006800F008000890089840
:104D4000FFE740F20040C4F2020004904FF47C41BF
:104D500000220692FDF77AFD0498069A0721FDF7D6
:104D600075FD069A40F60000C4F2020001904FF46F
:104D700050710091FDF76AFD069A0020C4F202000E
:104D8000039041F61071FDF761FD019806994FF40B
:104D900000520D924FF488120E920F910DA90591B9
:104DA000FDF760FB03980599069A48F208030D93F6
:104DB0000E920F92FDF756FB01980599069A4DF653
:104DC000BF430D930E920F92FDF74CFB049805998B
:104DD000069A4FF607430D93012302930E930F9209
:104DE0001092FDF73FFBDDF800C00198029B05998A
:104DF000069ACDF834C00E930F921092FDF732FB55
:104E0000029B03980599069A4FF4F85CCDF834C0DC
:104E10000E930F921092FDF725FB029A03980599C5
:104E200010230D930F92FDF71DFB059906980422A0
:104E30000D920E900F9040F60040C4F20200FDF774
:104E400011FB04980599069A4FF468730D930E921E
:104E50000F92FDF707FB069A282007900821FDF71F
:104E6000A5FD0798FDF798FD12B080BD80B582B012
:104E700040F2B810C2F20000019043F20001C4F207
:104E8000010101604FF48271416000218160C160C5
:104E9000016141614FF4007282611822C2610162B6
:104EA000416281620A21C162FEF7AEFA18B1FFE7E2
:104EB000FCF772FEFFE702B080BD000080B58AB04B
:104EC00000210091099108910791069105910491A3
:104ED00003910291019140F21020C2F200004FF0C4
:104EE000804202604160816045F20822C260016137
:104EF00080218161FFF702FC18B1FFE7FCF74CFE4F
:104F0000FFE700200890099040F21020C2F2000054
:104F100008A9FFF7B1F818B1FFE7FCF73DFEFFE77E
:104F200060200190002202920392059240F210202C
:104F3000C2F2000001A9FFF73FFB18B1FFE7FCF741
:104F40002BFEFFE740F21020C2F20000FFF7ACFAA0
:104F50000AB080BD80B58AB0002100910991089106
:104F6000079106910591049103910291019140F2FC
:104F70005820C2F2000040F20042C4F20002026077
:104F80004160816045F20822C26001618021816137
:104F9000FFF7B4FB18B1FFE7FCF7FEFDFFE70020C9
:104FA0000890099040F25820C2F2000008A9FFF7CB
:104FB00063F818B1FFE7FCF7EFFDFFE76020019011
:104FC000002202920392059240F25820C2F20000A1
:104FD00001A9FFF7F1FA18B1FFE7FCF7DDFDFFE7E4
:104FE00040F25820C2F20000FFF75EFA0AB080BD1E
:104FF00080B58AB00021009109910891079106912E
:105000000591049103910291019140F2A020C2F216
:10501000000040F60002C4F20002026041608160BC
:1050200045F20822C260016180218161FFF766FBC1
:1050300018B1FFE7FCF7B0FDFFE7002008900990EA
:1050400040F2A020C2F2000008A9FFF715F818B13D
:10505000FFE7FCF7A1FDFFE760200190002202922C
:105060000392059240F2A020C2F2000001A9FFF7CE
:10507000A3FA18B1FFE7FCF78FFDFFE740F2A0208D
:10508000C2F20000FFF710FA0AB080BD80B58EB002
:1050900005A801902421FBF7CBF901990023029385
:1050A0000493039340F2E820C2F2000040F600426D
:1050B000C4F200020260436083605422C260036154
:1050C0008361032205924FF0020ECDF818E04FF0F5
:1050D000010CCDF81CC008930F220992CDF828E0EE
:1050E000CDF82CC00C930D92FFF758F818B1FFE7DC
:1050F000FCF752FDFFE700200390049040F2E82007
:10510000C2F2000003A9FEF7B7FF18B1FFE7FCF7F2
:1051100043FDFFE70EB080BDFFE7FEE7FFE7FEE7D8
:1051200088B0079006910592079800F00700049058
:105130000498C0F10700052803D3FFE7042001907D
:1051400004E00498C0F107000190FFE70198039084
:1051500004980430062803D8FFE70020009003E0FD
:10516000049803380090FFE700980290069803998E
:10517000012202FA01F101390840029B9840059989
:105180009A40013A1140084308B070477047000048
:1051900080B584B0039000200290FFE702981328A6
:1051A00013DCFFE703980299405C8DF807009DF837
:1051B000070008B9FFE708E09DF8070002F0DEFBF2
:1051C000FFE7029801300290E8E704B080BD0000DC
:1051D00080B586B004900391029204984068B0F5BF
:1051E000827F13D1FFE704988068B0F5004F06D0A6
:1051F000FFE704988068B0F5806F07D1FFE7049857
:105200000168086820F040000860FFE704984068E3
:10521000B0F5827F31D1FFE704988068B0F5806FE8
:1052200015D0FFE70498039B02996A46116080211C
:10523000002200F091F848B1FFE70499486D40F072
:105240002000486503208DF817002FE014E0049833
:10525000039B02996A4611600121002200F07CF84C
:1052600048B1FFE70499486D40F0200048650320ED
:105270008DF817001AE0FFE714E00498039B0299E9
:105280006A4611600121002200F066F848B1FFE78C
:105290000499486D40F02000486503208DF8170000
:1052A00004E0FFE700208DF81700FFE79DF81700E6
:1052B00006B080BD80B586B004900391029240F2A2
:1052C0000000C2F2000000684AF6AB21CAF6AA212B
:1052D000A0FB011000094DF68361C4F21B31A0FB55
:1052E0000110800C4FF47A71484301900498406893
:1052F000B0F5827F15D1FFE70498039B02996A46B7
:1053000011608021002200F027F848B1FFE70499DE
:10531000486D40F02000486503208DF8170017E025
:1053200012E0FFE7019808B9FFE70CE001980138A7
:105330000190FFE7049800688068C1B20020B0EBDC
:10534000D11FEFD1FFE7FFE700208DF81700FFE73F
:105350009DF8170006B080BD80B58AB0DDF830C07A
:10536000089007918DF81B20059305980190FDF793
:1053700085FA024601980C99891A08440390FDF7B2
:105380007DFA0290039840F20001C2F20001096820
:10539000C1F3CB3148430490FFE708980068806868
:1053A00007990840401AB0FA80F040099DF81B1098
:1053B00088425ED0FFE705980130002858D0FFE70B
:1053C000FDF75CFA0299401A0399884204D2FFE77C
:1053D0000398002842D1FFE708980168486820F048
:1053E000E000486008984068B0F5827F13D1FFE77D
:1053F00008988068B0F5004F06D0FFE708988068ED
:10540000B0F5806F07D1FFE708980168086820F0C1
:1054100040000860FFE70898806AB0F5005F0FD190
:10542000FFE7FFE708980168086820F4005008606B
:1054300008980168086840F400500860FFE7FFE73B
:105440000899012081F85100FFE70899002081F8B0
:105450005000FFE703208DF827000EE0049818B9EC
:10546000FFE700200390FFE7049801380490FFE76E
:1054700093E700208DF82700FFE79DF827000AB08A
:1054800080BD000080B540F2BC00C2F200000068A0
:1054900040F2B801C2F2000109880122FDF7D6F9F5
:1054A0000A20FCF79BFF80BD80B540F2BC00C2F231
:1054B0000000006840F2B801C2F200010988002231
:1054C000FDF7C4F90A20FCF789FF80BD7047000092
:1054D00080B582B0009000980138B0F1807F03D38E
:1054E000FFE70120019019E0009801384EF2140105
:1054F000CEF2000108604FF0FF300F2100F0DEFB1C
:105500004EF21801CEF20001002008604EF21002A7
:10551000CEF20002072111600190FFE7019802B06E
:1055200080BD000080B5FDF7AFF901F073FE80BDCE
:1055300080B594B008A83021FAF77AFF00200790D0
:105540000690059004900390FFE70020029043F638
:105550004000C4F20200016841F08051016000681F
:1055600000F0805002900298FFE7FFE700200190D2
:1055700047F20000C4F20000016841F4804101607C
:10558000006800F4804001900198FFE70120089036
:105590004FF48030099002210E914FF480000F905B
:1055A00004201090A82211921291139008A8FDF7E0
:1055B000CBFB18B1FFE7FCF7EFFAFFE70F200390F2
:1055C00002200490002005904FF4A05006904FF464
:1055D0008050079003A80521FDF70AFA18B1FFE7EC
:1055E000FCF7DAFAFFE702F009F914B080BD000019
:1055F0004EF68851CEF20001086840F47000086051
:105600007047000083B002900191029800680090FA
:1056100002980021C4F20101884225D0FFE70298D8
:10562000B0F1804F20D0FFE7029840F20041C4F271
:105630000001884218D0FFE7029840F60001C4F24A
:105640000001884210D0FFE7029840F60041C4F202
:105650000001884208D0FFE7029840F20041C4F2FE
:10566000010188420AD1FFE7009820F07000009005
:1056700001984168009808430090FFE702980021D4
:10568000C4F20101884255D0FFE70298B0F1804F83
:1056900050D0FFE7029840F20041C4F20001884276
:1056A00048D0FFE7029840F60001C4F200018842AA
:1056B00040D0FFE7029840F60041C4F20001884262
:1056C00038D0FFE7029840F20041C4F2010188425D
:1056D00030D0FFE7029844F20001C4F20101884291
:1056E00028D0FFE7029844F20041C4F20101884249
:1056F00020D0FFE7029844F60001C4F2010188427D
:1057000018D0FFE7029841F60001C4F20001884278
:1057100010D0FFE7029841F60041C4F20001884230
:1057200008D0FFE7029842F20001C4F2000188426B
:105730000AD1FFE7009820F4407000900198C168FA
:10574000009808430090FFE7009820F0800001993E
:1057500049690843009000980299086001988068A0
:105760000299C86201980068029988620298002133
:10577000C4F20101884208D0FFE7029840F20041DC
:10578000C4F20101884205D1FFE70198006902993E
:105790000863FFE702990120486103B070470000E9
:1057A00084B0039002910192029800F01F01012041
:1057B00088400090009A0399086A90430862019813
:1057C000029901F01F0100FA01F20399086A1043DF
:1057D000086204B07047000085B0049003910499FA
:1057E000086A20F0010008620498006A0190049899
:1057F00040680090049880690290029820F0700040
:105800000290029820F00300029003980168029829
:1058100008430290019820F00200019003988168EB
:1058200001980843019004980021C4F201018842C4
:1058300008D0FFE7049840F20041C4F20101884219
:105840000ED1FFE7019820F0080001900398C1688D
:10585000019808430190019820F004000190FFE7AF
:1058600004980021C4F20101884208D0FFE704989F
:1058700040F20041C4F20101884213D1FFE70098D1
:1058800020F480700090009820F40070009003983D
:105890004169009808430090039881690098084383
:1058A0000090FFE700980499486002980499886185
:1058B000039840680499486301980499086205B008
:1058C0007047000085B0049003910499086A20F0A5
:1058D000100008620498006A0190049840680090E3
:1058E000049880690290029820F4E04002900298A7
:1058F00020F44070029003980168029840EA012069
:105900000290019820F0200001900398816801988E
:1059100040EA0110019004980021C4F2010188427C
:1059200008D0FFE7049840F20041C4F20101884228
:105930000FD1FFE7019820F0800001900398C16823
:10594000019840EA01100190019820F04000019078
:10595000FFE704980021C4F20101884208D0FFE764
:10596000049840F20041C4F20101884215D1FFE7DA
:10597000009820F480600090009820F4006000906F
:1059800003984169009840EA81000090039881697A
:10599000009840EA81000090FFE700980499486071
:1059A0000298049988610398406804998863019873
:1059B0000499086205B0704785B00490039104997A
:1059C000086A20F4807008620498006A01900498C4
:1059D000406800900498C0690290029820F070001E
:1059E0000290029820F00300029003980168029848
:1059F00008430290019820F4007001900398816898
:105A0000019840EA0120019004980021C4F20101AC
:105A1000884208D0FFE7049840F20041C4F2010137
:105A200088420FD1FFE7019820F4006001900398AD
:105A3000C168019840EA01200190019820F480603B
:105A40000190FFE704980021C4F20101884208D0C8
:105A5000FFE7049840F20041C4F20101884215D1E9
:105A6000FFE7009820F480500090009820F4005048
:105A7000009003984169009840EA01100090039853
:105A80008169009840EA01100090FFE700980499AE
:105A9000486002980499C861039840680499C863F3
:105AA00001980499086205B07047000085B0049021
:105AB00003910499086A20F4805008620498006AEF
:105AC00001900498406800900498C0690290029880
:105AD00020F4E0400290029820F440700290039875
